{
  "contractName": "Raven",
  "abi": [
    {
      "constant": false,
      "inputs": [
        {
          "name": "newLength",
          "type": "uint256"
        }
      ],
      "name": "setMessageMaxLength",
      "outputs": [
        {
          "name": "success",
          "type": "bool"
        }
      ],
      "payable": false,
      "stateMutability": "nonpayable",
      "type": "function"
    },
    {
      "constant": true,
      "inputs": [],
      "name": "getMessageMaxLength",
      "outputs": [
        {
          "name": "length",
          "type": "uint256"
        }
      ],
      "payable": false,
      "stateMutability": "view",
      "type": "function"
    },
    {
      "constant": true,
      "inputs": [
        {
          "name": "txHash",
          "type": "bytes32"
        }
      ],
      "name": "getReplyCount",
      "outputs": [
        {
          "name": "count",
          "type": "uint256"
        }
      ],
      "payable": false,
      "stateMutability": "view",
      "type": "function"
    },
    {
      "constant": false,
      "inputs": [
        {
          "name": "text",
          "type": "string"
        },
        {
          "name": "topic",
          "type": "bytes32"
        },
        {
          "name": "replyTo",
          "type": "bytes32"
        }
      ],
      "name": "sendMessage",
      "outputs": [],
      "payable": false,
      "stateMutability": "nonpayable",
      "type": "function"
    },
    {
      "inputs": [],
      "payable": false,
      "stateMutability": "nonpayable",
      "type": "constructor"
    },
    {
      "anonymous": false,
      "inputs": [
        {
          "indexed": false,
          "name": "text",
          "type": "string"
        },
        {
          "indexed": true,
          "name": "sender",
          "type": "address"
        },
        {
          "indexed": true,
          "name": "topic",
          "type": "bytes32"
        },
        {
          "indexed": true,
          "name": "replyTo",
          "type": "bytes32"
        },
        {
          "indexed": false,
          "name": "timestamp",
          "type": "uint256"
        },
        {
          "indexed": false,
          "name": "sequence",
          "type": "uint256"
        }
      ],
      "name": "Message",
      "type": "event"
    }
  ],
  "bytecode": "0x6060604052341561000f57600080fd5b336000806101000a81548173ffffffffffffffffffffffffffffffffffffffff021916908373ffffffffffffffffffffffffffffffffffffffff16021790555061011860018190555061046f806100676000396000f300606060405260043610610062576000357c0100000000000000000000000000000000000000000000000000000000900463ffffffff1680630126d50f146100675780636cb3a130146100a2578063b557a11d146100cb578063efa24bce14610106575b600080fd5b341561007257600080fd5b610088600480803590602001909190505061017d565b604051808215151515815260200191505060405180910390f35b34156100ad57600080fd5b6100b56101e7565b6040518082815260200191505060405180910390f35b34156100d657600080fd5b6100f06004808035600019169060200190919050506101f1565b6040518082815260200191505060405180910390f35b341561011157600080fd5b61017b600480803590602001908201803590602001908080601f01602080910402602001604051908101604052809392919081815260200183838082843782019150505050505091908035600019169060200190919080356000191690602001909190505061022c565b005b60003373ffffffffffffffffffffffffffffffffffffffff166000809054906101000a900473ffffffffffffffffffffffffffffffffffffffff1673ffffffffffffffffffffffffffffffffffffffff161415156101d757fe5b8160018190555060019050919050565b6000600154905090565b600060036000836000191660001916815260200190815260200160002060009054906101000a900463ffffffff1663ffffffff169050919050565b600154835111158015610240575060008351115b151561024b57600080fd5b7f3078300000000000000000000000000000000000000000000000000000000000816000191614151561035157600160036000836000191660001916815260200190815260200160002060009054906101000a900463ffffffff160163ffffffff1660036000836000191660001916815260200190815260200160002060009054906101000a900463ffffffff1663ffffffff161015156102e857fe5b600160036000836000191660001916815260200190815260200160002060009054906101000a900463ffffffff160160036000836000191660001916815260200190815260200160002060006101000a81548163ffffffff021916908363ffffffff1602179055505b60016002540160025410151561036357fe5b600160025401600281905550806000191682600019163373ffffffffffffffffffffffffffffffffffffffff167f90c7172ef406efbdeee524a3330c5b4dbd3a2f2276612b23a6a2bfe62dc0f7ca86426002546040518080602001848152602001838152602001828103825285818151815260200191508051906020019080838360005b838110156104025780820151818401526020810190506103e7565b50505050905090810190601f16801561042f5780820380516001836020036101000a031916815260200191505b5094505050505060405180910390a45050505600a165627a7a723058203b979f5c16620915ccc17ad3e118fcf43b0f560b4ecf6ddc5877fa4c4bcbe7c60029",
  "source": "pragma solidity ^0.4.17;\n\ncontract Raven {\n    address contractCreator;\n    uint messageMaxLength;\n    uint currentSequence;\n    mapping(bytes32 => uint32) replyCount; \n\n    function Raven() public {\n        contractCreator = msg.sender;\n        messageMaxLength = 280;\n    }\n\n    event Message(\n        string text, \n        address indexed sender, \n        bytes32 indexed topic, \n        bytes32 indexed replyTo,\n        uint timestamp,\n        uint sequence\n    );\n\n    function setMessageMaxLength(uint newLength) public returns (bool success) {\n        assert(contractCreator == msg.sender);\n        messageMaxLength = newLength;\n        return true;\n    }\n    \n    function sendMessage(string text, bytes32 topic, bytes32 replyTo) public {\n        require(bytes(text).length <= messageMaxLength && bytes(text).length > 0);\n        if (replyTo != \"0x0\") {\n            assert(replyCount[replyTo] < replyCount[replyTo] + 1);\n            replyCount[replyTo] = replyCount[replyTo] + 1;\n        }\n        assert(currentSequence < currentSequence + 1);\n        currentSequence = currentSequence + 1;\n        return Message(text, msg.sender, topic, replyTo, now, currentSequence);\n    }\n\n    function getMessageMaxLength() constant public returns(uint length) {\n        return messageMaxLength;\n    }\n\n    function getReplyCount(bytes32 txHash) constant public returns(uint count) {\n        return replyCount[txHash]; \n    }\n}",
  "sourcePath": "/Users/yanjia.li/Projects/eth/contracts/Raven.sol",
  "compiler": {
    "name": "solc",
    "version": "0.4.18+commit.9cf6e910.Emscripten.clang"
  },
  "schemaVersion": "1.0.1",
  "updatedAt": "2018-02-11T03:12:33.536Z"
}