{
  "contractName": "Twitter",
  "abi": [
    {
      "constant": false,
      "inputs": [
        {
          "name": "text",
          "type": "bytes32"
        }
      ],
      "name": "sendTweet",
      "outputs": [],
      "payable": false,
      "stateMutability": "nonpayable",
      "type": "function"
    },
    {
      "anonymous": false,
      "inputs": [
        {
          "indexed": false,
          "name": "tweet",
          "type": "bytes32"
        },
        {
          "indexed": true,
          "name": "sender",
          "type": "address"
        }
      ],
      "name": "Tweet",
      "type": "event"
    }
  ],
  "bytecode": "0x60606040523415600e57600080fd5b60ed8061001c6000396000f300606060405260043610603f576000357c0100000000000000000000000000000000000000000000000000000000900463ffffffff1680633fb73c82146044575b600080fd5b3415604e57600080fd5b60666004808035600019169060200190919050506068565b005b3373ffffffffffffffffffffffffffffffffffffffff167fb0a943f98f287133a5ebd2ea93e226372134d5bb974d8a0034c1f518484b58218260405180826000191660001916815260200191505060405180910390a2505600a165627a7a723058201c75bec06a29d0590dae15accb1c21050b17c10f365f8131fa09121ade63eb440029",
  "source": "pragma solidity ^0.4.17;\n\ncontract Twitter {\n    event Tweet(bytes32 tweet, address indexed sender);\n    \n    function sendTweet(bytes32 text) public {\n        return Tweet(text, msg.sender);\n    }\n}",
  "sourcePath": "/Users/yanjia.li/Projects/eth/contracts/Twitter.sol",
  "compiler": {
    "name": "solc",
    "version": "0.4.18+commit.9cf6e910.Emscripten.clang"
  },
  "schemaVersion": "1.0.1",
  "updatedAt": "2018-01-19T23:41:34.587Z"
}